{
  "_format": "hh-sol-artifact-1",
  "contractName": "Escrow",
  "sourceName": "contracts/Escrow.sol",
  "abi": [
    {
      "inputs": [],
      "stateMutability": "nonpayable",
      "type": "constructor"
    },
    {
      "anonymous": false,
      "inputs": [
        {
          "indexed": false,
          "internalType": "uint256",
          "name": "id",
          "type": "uint256"
        },
        {
          "indexed": false,
          "internalType": "address",
          "name": "_seller",
          "type": "address"
        }
      ],
      "name": "EscrowCreated",
      "type": "event"
    },
    {
      "inputs": [
        {
          "internalType": "uint256",
          "name": "",
          "type": "uint256"
        }
      ],
      "name": "allEscrows",
      "outputs": [
        {
          "internalType": "enum Escrow.State",
          "name": "currentState",
          "type": "uint8"
        },
        {
          "internalType": "address payable",
          "name": "buyer",
          "type": "address"
        },
        {
          "internalType": "address payable",
          "name": "seller",
          "type": "address"
        },
        {
          "internalType": "uint256",
          "name": "amount",
          "type": "uint256"
        }
      ],
      "stateMutability": "view",
      "type": "function"
    },
    {
      "inputs": [],
      "name": "getEscrowBalance",
      "outputs": [
        {
          "internalType": "uint256",
          "name": "",
          "type": "uint256"
        }
      ],
      "stateMutability": "view",
      "type": "function"
    },
    {
      "inputs": [
        {
          "internalType": "address payable",
          "name": "_seller",
          "type": "address"
        },
        {
          "internalType": "uint256",
          "name": "amount",
          "type": "uint256"
        }
      ],
      "name": "initializeEscrowAccount",
      "outputs": [
        {
          "internalType": "uint256",
          "name": "",
          "type": "uint256"
        }
      ],
      "stateMutability": "payable",
      "type": "function"
    },
    {
      "inputs": [
        {
          "internalType": "uint256",
          "name": "escrowId",
          "type": "uint256"
        }
      ],
      "name": "markDelivered",
      "outputs": [],
      "stateMutability": "nonpayable",
      "type": "function"
    },
    {
      "inputs": [
        {
          "internalType": "uint256",
          "name": "escrowId",
          "type": "uint256"
        }
      ],
      "name": "markShipped",
      "outputs": [],
      "stateMutability": "nonpayable",
      "type": "function"
    },
    {
      "inputs": [
        {
          "internalType": "uint256",
          "name": "escrowId",
          "type": "uint256"
        }
      ],
      "name": "refund",
      "outputs": [],
      "stateMutability": "nonpayable",
      "type": "function"
    },
    {
      "inputs": [
        {
          "internalType": "uint256",
          "name": "escrowId",
          "type": "uint256"
        }
      ],
      "name": "releaseFunds",
      "outputs": [],
      "stateMutability": "nonpayable",
      "type": "function"
    },
    {
      "inputs": [
        {
          "internalType": "uint256",
          "name": "amount",
          "type": "uint256"
        }
      ],
      "name": "withdrawFunds",
      "outputs": [],
      "stateMutability": "nonpayable",
      "type": "function"
    }
  ],
  "bytecode": "0x608060405234801561001057600080fd5b50336000806101000a81548173ffffffffffffffffffffffffffffffffffffffff021916908373ffffffffffffffffffffffffffffffffffffffff1602179055506001808190555061189e806100676000396000f3fe60806040526004361061007b5760003560e01c80634d68282f1161004e5780634d68282f14610142578063c56e610e1461016b578063eb826a5f14610196578063eed90d6b146101bf5761007b565b8063155dd5ee146100805780631d3afee6146100a957806324ceb18b146100e9578063278ecde114610119575b600080fd5b34801561008c57600080fd5b506100a760048036038101906100a29190611062565b6101e8565b005b3480156100b557600080fd5b506100d060048036038101906100cb9190611062565b61033e565b6040516100e09493929190611156565b60405180910390f35b61010360048036038101906100fe91906111c7565b6103bb565b6040516101109190611207565b60405180910390f35b34801561012557600080fd5b50610140600480360381019061013b9190611062565b610641565b005b34801561014e57600080fd5b5061016960048036038101906101649190611062565b6109b5565b005b34801561017757600080fd5b50610180610cd7565b60405161018d9190611207565b60405180910390f35b3480156101a257600080fd5b506101bd60048036038101906101b89190611062565b610ce1565b005b3480156101cb57600080fd5b506101e660048036038101906101e19190611062565b610e51565b005b60008054906101000a900473ffffffffffffffffffffffffffffffffffffffff1673ffffffffffffffffffffffffffffffffffffffff163373ffffffffffffffffffffffffffffffffffffffff1614610276576040517f08c379a000000000000000000000000000000000000000000000000000000000815260040161026d9061127f565b60405180910390fd5b6002548111156102bb576040517f08c379a00000000000000000000000000000000000000000000000000000000081526004016102b290611311565b60405180910390fd5b60008054906101000a900473ffffffffffffffffffffffffffffffffffffffff1673ffffffffffffffffffffffffffffffffffffffff166108fc829081150290604051600060405180830381858888f19350505050158015610321573d6000803e3d6000fd5b5080600260008282546103349190611360565b9250508190555050565b60036020528060005260406000206000915090508060000160009054906101000a900460ff16908060000160019054906101000a900473ffffffffffffffffffffffffffffffffffffffff16908060010160009054906101000a900473ffffffffffffffffffffffffffffffffffffffff16908060020154905084565b60008273ffffffffffffffffffffffffffffffffffffffff163373ffffffffffffffffffffffffffffffffffffffff160361042b576040517f08c379a0000000000000000000000000000000000000000000000000000000008152600401610422906113e0565b60405180910390fd5b81341461046d576040517f08c379a00000000000000000000000000000000000000000000000000000000081526004016104649061144c565b60405180910390fd5b610475610fc1565b33816020019073ffffffffffffffffffffffffffffffffffffffff16908173ffffffffffffffffffffffffffffffffffffffff168152505083816040019073ffffffffffffffffffffffffffffffffffffffff16908173ffffffffffffffffffffffffffffffffffffffff1681525050828160600181815250508060036000600160008154809291906105079061146c565b91905055815260200190815260200160002060008201518160000160006101000a81548160ff021916908360038111156105445761054361108f565b5b021790555060208201518160000160016101000a81548173ffffffffffffffffffffffffffffffffffffffff021916908373ffffffffffffffffffffffffffffffffffffffff16021790555060408201518160010160006101000a81548173ffffffffffffffffffffffffffffffffffffffff021916908373ffffffffffffffffffffffffffffffffffffffff160217905550606082015181600201559050507f10cef5ec72e57e7983d937eb064757a668131fb3c724a8a7b1ee3fbd334fa3d6600180546106139190611360565b85604051610622929190611513565b60405180910390a1600180546106389190611360565b91505092915050565b600260038111156106555761065461108f565b5b6003600083815260200190815260200160002060000160009054906101000a900460ff16600381111561068b5761068a61108f565b5b14806106de5750600160038111156106a6576106a561108f565b5b6003600083815260200190815260200160002060000160009054906101000a900460ff1660038111156106dc576106db61108f565b5b145b61071d576040517f08c379a000000000000000000000000000000000000000000000000000000000815260040161071490611588565b60405180910390fd5b3373ffffffffffffffffffffffffffffffffffffffff166003600083815260200190815260200160002060000160019054906101000a900473ffffffffffffffffffffffffffffffffffffffff1673ffffffffffffffffffffffffffffffffffffffff16146107c1576040517f08c379a00000000000000000000000000000000000000000000000000000000081526004016107b8906115f4565b60405180910390fd5b6000600360008381526020019081526020016000206040518060800160405290816000820160009054906101000a900460ff1660038111156108065761080561108f565b5b60038111156108185761081761108f565b5b81526020016000820160019054906101000a900473ffffffffffffffffffffffffffffffffffffffff1673ffffffffffffffffffffffffffffffffffffffff1673ffffffffffffffffffffffffffffffffffffffff1681526020016001820160009054906101000a900473ffffffffffffffffffffffffffffffffffffffff1673ffffffffffffffffffffffffffffffffffffffff1673ffffffffffffffffffffffffffffffffffffffff16815260200160028201548152505090506000816060015190506000620186a06019836108f09190611614565b6108fa919061169d565b90506000818361090a9190611360565b9050836020015173ffffffffffffffffffffffffffffffffffffffff166108fc829081150290604051600060405180830381858888f19350505050158015610956573d6000803e3d6000fd5b50816002600082825461096991906116ce565b92505081905550600380600087815260200190815260200160002060000160006101000a81548160ff021916908360038111156109a9576109a861108f565b5b02179055505050505050565b6003600082815260200190815260200160002060010160009054906101000a900473ffffffffffffffffffffffffffffffffffffffff1673ffffffffffffffffffffffffffffffffffffffff163373ffffffffffffffffffffffffffffffffffffffff1614610a59576040517f08c379a0000000000000000000000000000000000000000000000000000000008152600401610a5090611770565b60405180910390fd5b60026003811115610a6d57610a6c61108f565b5b6003600083815260200190815260200160002060000160009054906101000a900460ff166003811115610aa357610aa261108f565b5b14610ae3576040517f08c379a0000000000000000000000000000000000000000000000000000000008152600401610ada90611588565b60405180910390fd5b6000600360008381526020019081526020016000206040518060800160405290816000820160009054906101000a900460ff166003811115610b2857610b2761108f565b5b6003811115610b3a57610b3961108f565b5b81526020016000820160019054906101000a900473ffffffffffffffffffffffffffffffffffffffff1673ffffffffffffffffffffffffffffffffffffffff1673ffffffffffffffffffffffffffffffffffffffff1681526020016001820160009054906101000a900473ffffffffffffffffffffffffffffffffffffffff1673ffffffffffffffffffffffffffffffffffffffff1673ffffffffffffffffffffffffffffffffffffffff16815260200160028201548152505090506000816060015190506000620186a0601983610c129190611614565b610c1c919061169d565b905060008183610c2c9190611360565b90508160026000828254610c4091906116ce565b92505081905550836040015173ffffffffffffffffffffffffffffffffffffffff166108fc829081150290604051600060405180830381858888f19350505050158015610c91573d6000803e3d6000fd5b50600380600087815260200190815260200160002060000160006101000a81548160ff02191690836003811115610ccb57610cca61108f565b5b02179055505050505050565b6000600254905090565b6003600082815260200190815260200160002060000160019054906101000a900473ffffffffffffffffffffffffffffffffffffffff1673ffffffffffffffffffffffffffffffffffffffff163373ffffffffffffffffffffffffffffffffffffffff1614610d85576040517f08c379a0000000000000000000000000000000000000000000000000000000008152600401610d7c906117dc565b60405180910390fd5b60016003811115610d9957610d9861108f565b5b6003600083815260200190815260200160002060000160009054906101000a900460ff166003811115610dcf57610dce61108f565b5b14610e0f576040517f08c379a0000000000000000000000000000000000000000000000000000000008152600401610e0690611588565b60405180910390fd5b60026003600083815260200190815260200160002060000160006101000a81548160ff02191690836003811115610e4957610e4861108f565b5b021790555050565b6003600082815260200190815260200160002060010160009054906101000a900473ffffffffffffffffffffffffffffffffffffffff1673ffffffffffffffffffffffffffffffffffffffff163373ffffffffffffffffffffffffffffffffffffffff1614610ef5576040517f08c379a0000000000000000000000000000000000000000000000000000000008152600401610eec90611848565b60405180910390fd5b60006003811115610f0957610f0861108f565b5b6003600083815260200190815260200160002060000160009054906101000a900460ff166003811115610f3f57610f3e61108f565b5b14610f7f576040517f08c379a0000000000000000000000000000000000000000000000000000000008152600401610f7690611588565b60405180910390fd5b60016003600083815260200190815260200160002060000160006101000a81548160ff02191690836003811115610fb957610fb861108f565b5b021790555050565b604051806080016040528060006003811115610fe057610fdf61108f565b5b8152602001600073ffffffffffffffffffffffffffffffffffffffff168152602001600073ffffffffffffffffffffffffffffffffffffffff168152602001600081525090565b600080fd5b6000819050919050565b61103f8161102c565b811461104a57600080fd5b50565b60008135905061105c81611036565b92915050565b60006020828403121561107857611077611027565b5b60006110868482850161104d565b91505092915050565b7f4e487b7100000000000000000000000000000000000000000000000000000000600052602160045260246000fd5b600481106110cf576110ce61108f565b5b50565b60008190506110e0826110be565b919050565b60006110f0826110d2565b9050919050565b611100816110e5565b82525050565b600073ffffffffffffffffffffffffffffffffffffffff82169050919050565b600061113182611106565b9050919050565b61114181611126565b82525050565b6111508161102c565b82525050565b600060808201905061116b60008301876110f7565b6111786020830186611138565b6111856040830185611138565b6111926060830184611147565b95945050505050565b6111a481611126565b81146111af57600080fd5b50565b6000813590506111c18161119b565b92915050565b600080604083850312156111de576111dd611027565b5b60006111ec858286016111b2565b92505060206111fd8582860161104d565b9150509250929050565b600060208201905061121c6000830184611147565b92915050565b600082825260208201905092915050565b7f4f6e6c79204f6e7765722063616e2063616c6c207468652066756e6374696f6e600082015250565b6000611269602083611222565b915061127482611233565b602082019050919050565b600060208201905081810360008301526112988161125c565b9050919050565b7f416d6f756e7420746f207769746864726177206973206772656174657220746860008201527f616e20617661696c61626c652046756e64730000000000000000000000000000602082015250565b60006112fb603283611222565b91506113068261129f565b604082019050919050565b6000602082019050818103600083015261132a816112ee565b9050919050565b7f4e487b7100000000000000000000000000000000000000000000000000000000600052601160045260246000fd5b600061136b8261102c565b91506113768361102c565b92508282101561138957611388611331565b5b828203905092915050565b7f53656c6c65722063616e6e6f7420626520746865206275796572000000000000600082015250565b60006113ca601a83611222565b91506113d582611394565b602082019050919050565b600060208201905081810360008301526113f9816113bd565b9050919050565b7f496e73756666696369656e7420616d6f756e7400000000000000000000000000600082015250565b6000611436601383611222565b915061144182611400565b602082019050919050565b6000602082019050818103600083015261146581611429565b9050919050565b60006114778261102c565b91507fffffffffffffffffffffffffffffffffffffffffffffffffffffffffffffffff82036114a9576114a8611331565b5b600182019050919050565b6000819050919050565b60006114d96114d46114cf84611106565b6114b4565b611106565b9050919050565b60006114eb826114be565b9050919050565b60006114fd826114e0565b9050919050565b61150d816114f2565b82525050565b60006040820190506115286000830185611147565b6115356020830184611504565b9392505050565b7f4e6f7420696e20436f7272656374205374617465000000000000000000000000600082015250565b6000611572601483611222565b915061157d8261153c565b602082019050919050565b600060208201905081810360008301526115a181611565565b9050919050565b7f4f6e6c792042757965722063616e207265717565737420526566756e64000000600082015250565b60006115de601d83611222565b91506115e9826115a8565b602082019050919050565b6000602082019050818103600083015261160d816115d1565b9050919050565b600061161f8261102c565b915061162a8361102c565b9250817fffffffffffffffffffffffffffffffffffffffffffffffffffffffffffffffff048311821515161561166357611662611331565b5b828202905092915050565b7f4e487b7100000000000000000000000000000000000000000000000000000000600052601260045260246000fd5b60006116a88261102c565b91506116b38361102c565b9250826116c3576116c261166e565b5b828204905092915050565b60006116d98261102c565b91506116e48361102c565b9250827fffffffffffffffffffffffffffffffffffffffffffffffffffffffffffffffff0382111561171957611718611331565b5b828201905092915050565b7f4f6e6c792053656c6c65722063616e2072656c656173652066756e6473000000600082015250565b600061175a601d83611222565b915061176582611724565b602082019050919050565b600060208201905081810360008301526117898161174d565b9050919050565b7f4f6e6c792042757965722063616e206d61726b2061732064656c697665726564600082015250565b60006117c6602083611222565b91506117d182611790565b602082019050919050565b600060208201905081810360008301526117f5816117b9565b9050919050565b7f4f6e6c792053656c6c65722063616e206d61726b206173205368697070656400600082015250565b6000611832601f83611222565b915061183d826117fc565b602082019050919050565b6000602082019050818103600083015261186181611825565b905091905056fea264697066735822122029c4ece11278c46daba1693774f5ac9752357188aea40930e07d36203c429d8264736f6c634300080e0033",
  "linkReferences": {},
  "deployedLinkReferences": {}
}